{
  "address": "0x7C804a7A7F10b9Ff6Db584fb66c00cF0789b5B78",
  "abi": [
    {
      "inputs": [],
      "name": "CampaignClosed",
      "type": "error"
    },
    {
      "inputs": [],
      "name": "ErrorInSendingETH",
      "type": "error"
    },
    {
      "inputs": [],
      "name": "InvalidCampaign",
      "type": "error"
    },
    {
      "inputs": [],
      "name": "NotEnoughETHEntered",
      "type": "error"
    },
    {
      "anonymous": false,
      "inputs": [
        {
          "indexed": true,
          "internalType": "address",
          "name": "contributor",
          "type": "address"
        },
        {
          "indexed": false,
          "internalType": "uint256",
          "name": "amount",
          "type": "uint256"
        }
      ],
      "name": "CampaignFunded",
      "type": "event"
    },
    {
      "anonymous": false,
      "inputs": [
        {
          "indexed": true,
          "internalType": "address",
          "name": "recipient",
          "type": "address"
        },
        {
          "indexed": false,
          "internalType": "uint256",
          "name": "amount",
          "type": "uint256"
        }
      ],
      "name": "RemainingETHSent",
      "type": "event"
    },
    {
      "anonymous": false,
      "inputs": [
        {
          "indexed": true,
          "internalType": "uint256",
          "name": "campaignId",
          "type": "uint256"
        }
      ],
      "name": "campaignCreated",
      "type": "event"
    },
    {
      "inputs": [],
      "name": "campaignId",
      "outputs": [
        {
          "internalType": "uint256",
          "name": "",
          "type": "uint256"
        }
      ],
      "stateMutability": "view",
      "type": "function"
    },
    {
      "inputs": [
        {
          "internalType": "uint256",
          "name": "_minAmount",
          "type": "uint256"
        },
        {
          "internalType": "uint256",
          "name": "_maxAmount",
          "type": "uint256"
        },
        {
          "internalType": "uint256",
          "name": "_maxTime",
          "type": "uint256"
        }
      ],
      "name": "createCampaign",
      "outputs": [],
      "stateMutability": "nonpayable",
      "type": "function"
    },
    {
      "inputs": [
        {
          "internalType": "uint256",
          "name": "cid",
          "type": "uint256"
        }
      ],
      "name": "fundCampaign",
      "outputs": [],
      "stateMutability": "payable",
      "type": "function"
    },
    {
      "inputs": [
        {
          "internalType": "uint256",
          "name": "cid",
          "type": "uint256"
        }
      ],
      "name": "getCampaignOwner",
      "outputs": [
        {
          "internalType": "address",
          "name": "",
          "type": "address"
        }
      ],
      "stateMutability": "view",
      "type": "function"
    },
    {
      "inputs": [
        {
          "internalType": "uint256",
          "name": "cid",
          "type": "uint256"
        }
      ],
      "name": "getContributors",
      "outputs": [
        {
          "internalType": "address[]",
          "name": "",
          "type": "address[]"
        }
      ],
      "stateMutability": "view",
      "type": "function"
    },
    {
      "inputs": [
        {
          "internalType": "uint256",
          "name": "cid",
          "type": "uint256"
        }
      ],
      "name": "getState",
      "outputs": [
        {
          "internalType": "enum CrowdFund.State",
          "name": "",
          "type": "uint8"
        }
      ],
      "stateMutability": "view",
      "type": "function"
    },
    {
      "inputs": [
        {
          "internalType": "uint256",
          "name": "cid",
          "type": "uint256"
        }
      ],
      "name": "getTotalFunds",
      "outputs": [
        {
          "internalType": "uint256",
          "name": "",
          "type": "uint256"
        }
      ],
      "stateMutability": "view",
      "type": "function"
    }
  ],
  "transactionHash": "0xb851dfab26c11a026a8d20a66183878324cc928c75be0ddc9eb6fbc96dfef163",
  "args": [],
  "numDeployments": 2,
  "solcInputHash": "3e46eb39c1615d8d04cef7cf62484291",
  "bytecode": "0x60806040526000805534801561001457600080fd5b50611047806100246000396000f3fe6080604052600436106100705760003560e01c806392bd38bc1161004e57806392bd38bc1461011a578063cc84ad0214610136578063ee835ae414610173578063f69d3158146101b057610070565b80633c1ab00f1461007557806344c9af28146100b25780638ed5b0fc146100ef575b600080fd5b34801561008157600080fd5b5061009c60048036038101906100979190610b76565b6101d9565b6040516100a99190610c93565b60405180910390f35b3480156100be57600080fd5b506100d960048036038101906100d49190610b76565b6102d3565b6040516100e69190610d2c565b60405180910390f35b3480156100fb57600080fd5b50610104610356565b6040516101119190610d56565b60405180910390f35b610134600480360381019061012f9190610b76565b61035c565b005b34801561014257600080fd5b5061015d60048036038101906101589190610b76565b61079b565b60405161016a9190610d56565b60405180910390f35b34801561017f57600080fd5b5061019a60048036038101906101959190610b76565b610811565b6040516101a79190610d80565b60405180910390f35b3480156101bc57600080fd5b506101d760048036038101906101d29190610d9b565b6108a7565b005b60606001805490508210610222576040517f08c379a000000000000000000000000000000000000000000000000000000000815260040161021990610e4b565b60405180910390fd5b6001828154811061023657610235610e6b565b5b90600052602060002090600802016005018054806020026020016040519081016040528092919081815260200182805480156102c757602002820191906000526020600020905b8160009054906101000a900473ffffffffffffffffffffffffffffffffffffffff1673ffffffffffffffffffffffffffffffffffffffff168152602001906001019080831161027d575b50505050509050919050565b6000600180549050821061031c576040517f08c379a000000000000000000000000000000000000000000000000000000000815260040161031390610e4b565b60405180910390fd5b600182815481106103305761032f610e6b565b5b906000526020600020906008020160060160009054906101000a900460ff169050919050565b60005481565b60018054905081106103a3576040517f08c379a000000000000000000000000000000000000000000000000000000000815260040161039a90610e4b565b60405180910390fd5b6000600182815481106103b9576103b8610e6b565b5b90600052602060002090600802019050600060018111156103dd576103dc610cb5565b5b8160060160009054906101000a900460ff16600181111561040157610400610cb5565b5b14610438576040517fb49a509a00000000000000000000000000000000000000000000000000000000815260040160405180910390fd5b6000349050816000015481101561047b576040517f3c21f23000000000000000000000000000000000000000000000000000000000815260040160405180910390fd5b81600101548183600701546104909190610ec9565b11156105ff576000826007015483600101546104ac9190610f1f565b9050600081836104bc9190610f1f565b9050818460070160008282546104d29190610ec9565b9250508190555060018460060160006101000a81548160ff0219169083600181111561050157610500610cb5565b5b021790555060003373ffffffffffffffffffffffffffffffffffffffff168260405161052c90610f84565b60006040518083038185875af1925050503d8060008114610569576040519150601f19603f3d011682016040523d82523d6000602084013e61056e565b606091505b50509050806105a9576040517f35b30e3d00000000000000000000000000000000000000000000000000000000815260040160405180910390fd5b3373ffffffffffffffffffffffffffffffffffffffff167fce6a516d9392c67b5d5a089d8c0527f49405d83dc62e7669730e129fb1f50bde836040516105ef9190610d56565b60405180910390a2505050610796565b808260070160008282546106139190610ec9565b9250508190555081600501339080600181540180825580915050600190039060005260206000200160009091909190916101000a81548173ffffffffffffffffffffffffffffffffffffffff021916908373ffffffffffffffffffffffffffffffffffffffff16021790555060008260030160009054906101000a900473ffffffffffffffffffffffffffffffffffffffff1673ffffffffffffffffffffffffffffffffffffffff16826040516106c990610f84565b60006040518083038185875af1925050503d8060008114610706576040519150601f19603f3d011682016040523d82523d6000602084013e61070b565b606091505b5050905080610746576040517f35b30e3d00000000000000000000000000000000000000000000000000000000815260040160405180910390fd5b3373ffffffffffffffffffffffffffffffffffffffff167f1dff23b965dba2af250c61d628a9dbc3857e77c638b2b4655d1fa20dfdf2a17a8360405161078c9190610d56565b60405180910390a2505b505050565b600060018054905082106107e4576040517f08c379a00000000000000000000000000000000000000000000000000000000081526004016107db90610e4b565b60405180910390fd5b600182815481106107f8576107f7610e6b565b5b9060005260206000209060080201600701549050919050565b6000600180549050821061085a576040517f08c379a000000000000000000000000000000000000000000000000000000000815260040161085190610e4b565b60405180910390fd5b6001828154811061086e5761086d610e6b565b5b906000526020600020906008020160030160009054906101000a900473ffffffffffffffffffffffffffffffffffffffff169050919050565b60016040518061010001604052808581526020018481526020018381526020013373ffffffffffffffffffffffffffffffffffffffff1681526020016000548152602001600067ffffffffffffffff81111561090657610905610f99565b5b6040519080825280602002602001820160405280156109345781602001602082028036833780820191505090505b5081526020016000600181111561094e5761094d610cb5565b5b81526020016000815250908060018154018082558091505060019003906000526020600020906008020160009091909190915060008201518160000155602082015181600101556040820151816002015560608201518160030160006101000a81548173ffffffffffffffffffffffffffffffffffffffff021916908373ffffffffffffffffffffffffffffffffffffffff1602179055506080820151816004015560a0820151816005019080519060200190610a0c929190610a94565b5060c08201518160060160006101000a81548160ff02191690836001811115610a3857610a37610cb5565b5b021790555060e082015181600701555050600080815480929190610a5b90610fc8565b91905055506000547f52875ede4f91dafbd10db4259700b0de6de34ecc7e65712267a691abcfd0d6c960405160405180910390a2505050565b828054828255906000526020600020908101928215610b0d579160200282015b82811115610b0c5782518260006101000a81548173ffffffffffffffffffffffffffffffffffffffff021916908373ffffffffffffffffffffffffffffffffffffffff16021790555091602001919060010190610ab4565b5b509050610b1a9190610b1e565b5090565b5b80821115610b37576000816000905550600101610b1f565b5090565b600080fd5b6000819050919050565b610b5381610b40565b8114610b5e57600080fd5b50565b600081359050610b7081610b4a565b92915050565b600060208284031215610b8c57610b8b610b3b565b5b6000610b9a84828501610b61565b91505092915050565b600081519050919050565b600082825260208201905092915050565b6000819050602082019050919050565b600073ffffffffffffffffffffffffffffffffffffffff82169050919050565b6000610bfa82610bcf565b9050919050565b610c0a81610bef565b82525050565b6000610c1c8383610c01565b60208301905092915050565b6000602082019050919050565b6000610c4082610ba3565b610c4a8185610bae565b9350610c5583610bbf565b8060005b83811015610c86578151610c6d8882610c10565b9750610c7883610c28565b925050600181019050610c59565b5085935050505092915050565b60006020820190508181036000830152610cad8184610c35565b905092915050565b7f4e487b7100000000000000000000000000000000000000000000000000000000600052602160045260246000fd5b60028110610cf557610cf4610cb5565b5b50565b6000819050610d0682610ce4565b919050565b6000610d1682610cf8565b9050919050565b610d2681610d0b565b82525050565b6000602082019050610d416000830184610d1d565b92915050565b610d5081610b40565b82525050565b6000602082019050610d6b6000830184610d47565b92915050565b610d7a81610bef565b82525050565b6000602082019050610d956000830184610d71565b92915050565b600080600060608486031215610db457610db3610b3b565b5b6000610dc286828701610b61565b9350506020610dd386828701610b61565b9250506040610de486828701610b61565b9150509250925092565b600082825260208201905092915050565b7f496e76616c69642063616d706169676e20494400000000000000000000000000600082015250565b6000610e35601383610dee565b9150610e4082610dff565b602082019050919050565b60006020820190508181036000830152610e6481610e28565b9050919050565b7f4e487b7100000000000000000000000000000000000000000000000000000000600052603260045260246000fd5b7f4e487b7100000000000000000000000000000000000000000000000000000000600052601160045260246000fd5b6000610ed482610b40565b9150610edf83610b40565b9250827fffffffffffffffffffffffffffffffffffffffffffffffffffffffffffffffff03821115610f1457610f13610e9a565b5b828201905092915050565b6000610f2a82610b40565b9150610f3583610b40565b925082821015610f4857610f47610e9a565b5b828203905092915050565b600081905092915050565b50565b6000610f6e600083610f53565b9150610f7982610f5e565b600082019050919050565b6000610f8f82610f61565b9150819050919050565b7f4e487b7100000000000000000000000000000000000000000000000000000000600052604160045260246000fd5b6000610fd382610b40565b91507fffffffffffffffffffffffffffffffffffffffffffffffffffffffffffffffff82141561100657611005610e9a565b5b60018201905091905056fea26469706673582212207c3f45e1aec4ece03aed7eed5ece910b395a70facbddf452cdbc46a343a76e4e64736f6c63430008080033",
  "devdoc": {
    "kind": "dev",
    "methods": {},
    "version": 1
  },
  "userdoc": {
    "kind": "user",
    "methods": {},
    "version": 1
  },
  "storageLayout": {
    "storage": [
      {
        "astId": 4,
        "contract": "contracts/Campaigns.sol:CrowdFund",
        "label": "campaignId",
        "offset": 0,
        "slot": "0",
        "type": "t_uint256"
      },
      {
        "astId": 30,
        "contract": "contracts/Campaigns.sol:CrowdFund",
        "label": "campaign",
        "offset": 0,
        "slot": "1",
        "type": "t_array(t_struct(Campaign)26_storage)dyn_storage"
      }
    ],
    "types": {
      "t_address": {
        "encoding": "inplace",
        "label": "address",
        "numberOfBytes": "20"
      },
      "t_array(t_address)dyn_storage": {
        "base": "t_address",
        "encoding": "dynamic_array",
        "label": "address[]",
        "numberOfBytes": "32"
      },
      "t_array(t_struct(Campaign)26_storage)dyn_storage": {
        "base": "t_struct(Campaign)26_storage",
        "encoding": "dynamic_array",
        "label": "struct CrowdFund.Campaign[]",
        "numberOfBytes": "32"
      },
      "t_enum(State)7": {
        "encoding": "inplace",
        "label": "enum CrowdFund.State",
        "numberOfBytes": "1"
      },
      "t_struct(Campaign)26_storage": {
        "encoding": "inplace",
        "label": "struct CrowdFund.Campaign",
        "members": [
          {
            "astId": 9,
            "contract": "contracts/Campaigns.sol:CrowdFund",
            "label": "i_minAmount",
            "offset": 0,
            "slot": "0",
            "type": "t_uint256"
          },
          {
            "astId": 11,
            "contract": "contracts/Campaigns.sol:CrowdFund",
            "label": "i_maxAmount",
            "offset": 0,
            "slot": "1",
            "type": "t_uint256"
          },
          {
            "astId": 13,
            "contract": "contracts/Campaigns.sol:CrowdFund",
            "label": "i_maxTime",
            "offset": 0,
            "slot": "2",
            "type": "t_uint256"
          },
          {
            "astId": 15,
            "contract": "contracts/Campaigns.sol:CrowdFund",
            "label": "campaignOwner",
            "offset": 0,
            "slot": "3",
            "type": "t_address"
          },
          {
            "astId": 17,
            "contract": "contracts/Campaigns.sol:CrowdFund",
            "label": "campaignId",
            "offset": 0,
            "slot": "4",
            "type": "t_uint256"
          },
          {
            "astId": 20,
            "contract": "contracts/Campaigns.sol:CrowdFund",
            "label": "Contributors",
            "offset": 0,
            "slot": "5",
            "type": "t_array(t_address)dyn_storage"
          },
          {
            "astId": 23,
            "contract": "contracts/Campaigns.sol:CrowdFund",
            "label": "state",
            "offset": 0,
            "slot": "6",
            "type": "t_enum(State)7"
          },
          {
            "astId": 25,
            "contract": "contracts/Campaigns.sol:CrowdFund",
            "label": "totalFund",
            "offset": 0,
            "slot": "7",
            "type": "t_uint256"
          }
        ],
        "numberOfBytes": "256"
      },
      "t_uint256": {
        "encoding": "inplace",
        "label": "uint256",
        "numberOfBytes": "32"
      }
    }
  }
}